{
  "contractName": "RockPaperScissors",
  "abi": [
    {
      "constant": true,
      "inputs": [
        {
          "name": "",
          "type": "bytes32"
        }
      ],
      "name": "betStructs",
      "outputs": [
        {
          "name": "player1",
          "type": "address"
        },
        {
          "name": "player2",
          "type": "address"
        },
        {
          "name": "winner",
          "type": "address"
        },
        {
          "name": "betPlayer1",
          "type": "uint8"
        },
        {
          "name": "betPlayer2",
          "type": "uint8"
        },
        {
          "name": "repeatBetPlayer1",
          "type": "uint256"
        },
        {
          "name": "amountPlayer1",
          "type": "uint256"
        },
        {
          "name": "amountPlayer2",
          "type": "uint256"
        },
        {
          "name": "amountWinner",
          "type": "uint256"
        },
        {
          "name": "deadline",
          "type": "uint256"
        }
      ],
      "payable": false,
      "stateMutability": "view",
      "type": "function"
    },
    {
      "constant": true,
      "inputs": [],
      "name": "owner",
      "outputs": [
        {
          "name": "",
          "type": "address"
        }
      ],
      "payable": false,
      "stateMutability": "view",
      "type": "function"
    },
    {
      "constant": true,
      "inputs": [
        {
          "name": "",
          "type": "bytes32"
        }
      ],
      "name": "winnerStructs",
      "outputs": [
        {
          "name": "winner",
          "type": "address"
        },
        {
          "name": "amountWinner",
          "type": "uint256"
        }
      ],
      "payable": false,
      "stateMutability": "view",
      "type": "function"
    },
    {
      "inputs": [],
      "payable": false,
      "stateMutability": "nonpayable",
      "type": "constructor"
    },
    {
      "anonymous": false,
      "inputs": [
        {
          "indexed": false,
          "name": "caller",
          "type": "address"
        },
        {
          "indexed": false,
          "name": "amount",
          "type": "uint256"
        },
        {
          "indexed": false,
          "name": "numberOfBlocks",
          "type": "uint256"
        }
      ],
      "name": "LogCreateBet",
      "type": "event"
    },
    {
      "anonymous": false,
      "inputs": [
        {
          "indexed": false,
          "name": "caller",
          "type": "address"
        },
        {
          "indexed": false,
          "name": "amount",
          "type": "uint256"
        },
        {
          "indexed": false,
          "name": "blockNumber",
          "type": "uint256"
        }
      ],
      "name": "LogJoinBet",
      "type": "event"
    },
    {
      "anonymous": false,
      "inputs": [
        {
          "indexed": false,
          "name": "caller",
          "type": "address"
        },
        {
          "indexed": false,
          "name": "betPlayer1",
          "type": "uint256"
        },
        {
          "indexed": false,
          "name": "blockNumber",
          "type": "uint256"
        }
      ],
      "name": "LogPlayBet",
      "type": "event"
    },
    {
      "anonymous": false,
      "inputs": [
        {
          "indexed": false,
          "name": "caller",
          "type": "address"
        },
        {
          "indexed": false,
          "name": "winner",
          "type": "address"
        },
        {
          "indexed": false,
          "name": "blockNumber",
          "type": "uint256"
        }
      ],
      "name": "LogAwardWinner",
      "type": "event"
    },
    {
      "anonymous": false,
      "inputs": [
        {
          "indexed": false,
          "name": "amount",
          "type": "uint256"
        },
        {
          "indexed": false,
          "name": "winner",
          "type": "address"
        },
        {
          "indexed": false,
          "name": "blockNumber",
          "type": "uint256"
        }
      ],
      "name": "LogAwardBet",
      "type": "event"
    },
    {
      "constant": true,
      "inputs": [
        {
          "name": "passPlayer1",
          "type": "bytes32"
        },
        {
          "name": "passPlayer2",
          "type": "bytes32"
        }
      ],
      "name": "getHashToBet",
      "outputs": [
        {
          "name": "hashToBet",
          "type": "bytes32"
        }
      ],
      "payable": false,
      "stateMutability": "pure",
      "type": "function"
    },
    {
      "constant": false,
      "inputs": [
        {
          "name": "hashToBet",
          "type": "bytes32"
        },
        {
          "name": "player2",
          "type": "address"
        },
        {
          "name": "numberOfBlocks",
          "type": "uint256"
        }
      ],
      "name": "createBet",
      "outputs": [
        {
          "name": "success",
          "type": "bool"
        }
      ],
      "payable": true,
      "stateMutability": "payable",
      "type": "function"
    },
    {
      "constant": false,
      "inputs": [
        {
          "name": "hashToBet",
          "type": "bytes32"
        }
      ],
      "name": "joinBet",
      "outputs": [
        {
          "name": "success",
          "type": "bool"
        }
      ],
      "payable": true,
      "stateMutability": "payable",
      "type": "function"
    },
    {
      "constant": false,
      "inputs": [
        {
          "name": "betPlayer1",
          "type": "uint8"
        },
        {
          "name": "repeatBetPlayer1",
          "type": "uint256"
        },
        {
          "name": "betPlayer2",
          "type": "uint8"
        },
        {
          "name": "passPlayer1",
          "type": "bytes32"
        },
        {
          "name": "passPlayer2",
          "type": "bytes32"
        }
      ],
      "name": "playBet",
      "outputs": [
        {
          "name": "winningPlayer",
          "type": "uint256"
        }
      ],
      "payable": false,
      "stateMutability": "nonpayable",
      "type": "function"
    },
    {
      "constant": true,
      "inputs": [
        {
          "name": "passOwner",
          "type": "bytes32"
        },
        {
          "name": "passWinner",
          "type": "bytes32"
        }
      ],
      "name": "getHashToAward",
      "outputs": [
        {
          "name": "hashToAward",
          "type": "bytes32"
        }
      ],
      "payable": false,
      "stateMutability": "pure",
      "type": "function"
    },
    {
      "constant": false,
      "inputs": [
        {
          "name": "hashToAward",
          "type": "bytes32"
        },
        {
          "name": "winner",
          "type": "address"
        }
      ],
      "name": "awardWinner",
      "outputs": [
        {
          "name": "success",
          "type": "bool"
        }
      ],
      "payable": false,
      "stateMutability": "nonpayable",
      "type": "function"
    },
    {
      "constant": false,
      "inputs": [
        {
          "name": "hashToAward",
          "type": "bytes32"
        },
        {
          "name": "hashToBet",
          "type": "bytes32"
        }
      ],
      "name": "awardBetToWinner",
      "outputs": [
        {
          "name": "success",
          "type": "bool"
        }
      ],
      "payable": false,
      "stateMutability": "nonpayable",
      "type": "function"
    }
  ],
  "bytecode": "0x6060604052341561000f57600080fd5b336000806101000a81548173ffffffffffffffffffffffffffffffffffffffff021916908373ffffffffffffffffffffffffffffffffffffffff1602179055506111e98061005e6000396000f3006060604052600436106100a4576000357c0100000000000000000000000000000000000000000000000000000000900463ffffffff168063043d0884146100a95780634e5be53b146100f95780635c4f78481461012d57806364b2942c146101895780638da5cb5b146102a3578063a68edb96146102f8578063a7cea1ff14610348578063d843acfd146103b6578063eb37455c1461041f578063fb33fec81461046b575b600080fd5b34156100b457600080fd5b6100db600480803560001916906020019091908035600019169060200190919050506104c9565b60405180826000191660001916815260200191505060405180910390f35b610113600480803560001916906020019091905050610501565b604051808215151515815260200191505060405180910390f35b61016f60048080356000191690602001909190803573ffffffffffffffffffffffffffffffffffffffff1690602001909190803590602001909190505061069e565b604051808215151515815260200191505060405180910390f35b341561019457600080fd5b6101ae6004808035600019169060200190919050506108c5565b604051808b73ffffffffffffffffffffffffffffffffffffffff1673ffffffffffffffffffffffffffffffffffffffff1681526020018a73ffffffffffffffffffffffffffffffffffffffff1673ffffffffffffffffffffffffffffffffffffffff1681526020018973ffffffffffffffffffffffffffffffffffffffff1673ffffffffffffffffffffffffffffffffffffffff16815260200188600281111561025457fe5b60ff16815260200187600281111561026857fe5b60ff1681526020018681526020018581526020018481526020018381526020018281526020019a505050505050505050505060405180910390f35b34156102ae57600080fd5b6102b6610993565b604051808273ffffffffffffffffffffffffffffffffffffffff1673ffffffffffffffffffffffffffffffffffffffff16815260200191505060405180910390f35b341561030357600080fd5b61032a600480803560001916906020019091908035600019169060200190919050506109b8565b60405180826000191660001916815260200191505060405180910390f35b341561035357600080fd5b61036d6004808035600019169060200190919050506109f0565b604051808373ffffffffffffffffffffffffffffffffffffffff1673ffffffffffffffffffffffffffffffffffffffff1681526020018281526020019250505060405180910390f35b34156103c157600080fd5b610409600480803560ff1690602001909190803590602001909190803560ff169060200190919080356000191690602001909190803560001916906020019091905050610a34565b6040518082815260200191505060405180910390f35b341561042a57600080fd5b61045160048080356000191690602001909190803560001916906020019091905050610e7b565b604051808215151515815260200191505060405180910390f35b341561047657600080fd5b6104af60048080356000191690602001909190803573ffffffffffffffffffffffffffffffffffffffff1690602001909190505061105a565b604051808215151515815260200191505060405180910390f35b600082826040518083600019166000191681526020018260001916600019168152602001925050506040518091039020905092915050565b6000806001600084600019166000191681526020019081526020016000206005015414151561052f57600080fd5b436001600084600019166000191681526020019081526020016000206007015411151561055b57600080fd5b3373ffffffffffffffffffffffffffffffffffffffff1660016000846000191660001916815260200190815260200160002060010160009054906101000a900473ffffffffffffffffffffffffffffffffffffffff1673ffffffffffffffffffffffffffffffffffffffff161415156105d357600080fd5b34600160008460001916600019168152602001908152602001600020600401541415156105ff57600080fd5b34600160008460001916600019168152602001908152602001600020600501819055507f238220c314bd3fa2a777e2eaa0e78a738f3a4c8db3d9375f3891ad2e5e8eebec333443604051808473ffffffffffffffffffffffffffffffffffffffff1673ffffffffffffffffffffffffffffffffffffffff168152602001838152602001828152602001935050505060405180910390a160019050919050565b600080600160008660001916600019168152602001908152602001600020600401541415156106cc57600080fd5b8273ffffffffffffffffffffffffffffffffffffffff1660016000866000191660001916815260200190815260200160002060000160009054906101000a900473ffffffffffffffffffffffffffffffffffffffff1673ffffffffffffffffffffffffffffffffffffffff161415151561074557600080fd5b3360016000866000191660001916815260200190815260200160002060000160006101000a81548173ffffffffffffffffffffffffffffffffffffffff021916908373ffffffffffffffffffffffffffffffffffffffff1602179055508260016000866000191660001916815260200190815260200160002060010160006101000a81548173ffffffffffffffffffffffffffffffffffffffff021916908373ffffffffffffffffffffffffffffffffffffffff1602179055508143016001600086600019166000191681526020019081526020016000206007018190555034600160008660001916600019168152602001908152602001600020600401819055507f1a36532eba5dfd26eea1ed277053c473f21f5b7ba17edd0bdf516a1e9fac2652333484604051808473ffffffffffffffffffffffffffffffffffffffff1673ffffffffffffffffffffffffffffffffffffffff168152602001838152602001828152602001935050505060405180910390a1600190509392505050565b60016020528060005260406000206000915090508060000160009054906101000a900473ffffffffffffffffffffffffffffffffffffffff16908060010160009054906101000a900473ffffffffffffffffffffffffffffffffffffffff16908060020160009054906101000a900473ffffffffffffffffffffffffffffffffffffffff16908060020160149054906101000a900460ff16908060020160159054906101000a900460ff1690806003015490806004015490806005015490806006015490806007015490508a565b6000809054906101000a900473ffffffffffffffffffffffffffffffffffffffff1681565b600082826040518083600019166000191681526020018260001916600019168152602001925050506040518091039020905092915050565b60026020528060005260406000206000915090508060000160009054906101000a900473ffffffffffffffffffffffffffffffffffffffff16908060010154905082565b600080610a4184846104c9565b905085600160008360001916600019168152602001908152602001600020600301819055507fb869e147b175537f8ad813e84f53bf98e6e510b0d273e5cbd711fae8b848727f338743604051808473ffffffffffffffffffffffffffffffffffffffff1673ffffffffffffffffffffffffffffffffffffffff168152602001838152602001828152602001935050505060405180910390a13373ffffffffffffffffffffffffffffffffffffffff166108fc879081150290604051600060405180830381858888f193505050501515610b1957600080fd5b846002811115610b2557fe5b876002811115610b3157fe5b1415610b3c57600080fd5b60016002811115610b4957fe5b876002811115610b5557fe5b148015610b78575060006002811115610b6a57fe5b856002811115610b7657fe5b145b80610bba575060006002811115610b8b57fe5b876002811115610b9757fe5b148015610bb95750600280811115610bab57fe5b856002811115610bb757fe5b145b5b80610bfc5750600280811115610bcc57fe5b876002811115610bd857fe5b148015610bfb575060016002811115610bed57fe5b856002811115610bf957fe5b145b5b80610c3e575060006002811115610c0f57fe5b876002811115610c1b57fe5b148015610c3d5750600280811115610c2f57fe5b856002811115610c3b57fe5b145b5b80610c81575060016002811115610c5157fe5b876002811115610c5d57fe5b148015610c80575060006002811115610c7257fe5b856002811115610c7e57fe5b145b5b80610cc35750600280811115610c9357fe5b876002811115610c9f57fe5b148015610cc2575060016002811115610cb457fe5b856002811115610cc057fe5b145b5b15610cd15760019150610e71565b60016002811115610cde57fe5b856002811115610cea57fe5b148015610d0d575060006002811115610cff57fe5b876002811115610d0b57fe5b145b80610d4f575060006002811115610d2057fe5b856002811115610d2c57fe5b148015610d4e5750600280811115610d4057fe5b876002811115610d4c57fe5b145b5b80610d915750600280811115610d6157fe5b856002811115610d6d57fe5b148015610d90575060016002811115610d8257fe5b876002811115610d8e57fe5b145b5b80610dd3575060006002811115610da457fe5b856002811115610db057fe5b148015610dd25750600280811115610dc457fe5b876002811115610dd057fe5b145b5b80610e16575060016002811115610de657fe5b856002811115610df257fe5b148015610e15575060006002811115610e0757fe5b876002811115610e1357fe5b145b5b80610e585750600280811115610e2857fe5b856002811115610e3457fe5b148015610e57575060016002811115610e4957fe5b876002811115610e5557fe5b145b5b15610e665760029150610e71565b60001515610e7057fe5b5b5095945050505050565b6000803373ffffffffffffffffffffffffffffffffffffffff1660026000866000191660001916815260200190815260200160002060000160009054906101000a900473ffffffffffffffffffffffffffffffffffffffff1673ffffffffffffffffffffffffffffffffffffffff16141515610ef657600080fd5b600160008460001916600019168152602001908152602001600020600501546001600085600019166000191681526020019081526020016000206004015401600160008560001916600019168152602001908152602001600020600601819055506001600084600019166000191681526020019081526020016000206006015490506000600160008560001916600019168152602001908152602001600020600601819055507fd0cc0c336d632fa4baa7b1a6b6425c12b1e4da0cce321c48820b966d0688b9d6813343604051808481526020018373ffffffffffffffffffffffffffffffffffffffff1673ffffffffffffffffffffffffffffffffffffffff168152602001828152602001935050505060405180910390a13373ffffffffffffffffffffffffffffffffffffffff166108fc829081150290604051600060405180830381858888f19350505050151561104f57600080fd5b600191505092915050565b60003373ffffffffffffffffffffffffffffffffffffffff166000809054906101000a900473ffffffffffffffffffffffffffffffffffffffff1673ffffffffffffffffffffffffffffffffffffffff161415156110b757600080fd5b8160026000856000191660001916815260200190815260200160002060000160006101000a81548173ffffffffffffffffffffffffffffffffffffffff021916908373ffffffffffffffffffffffffffffffffffffffff1602179055507f88df455c6952d0ac729d509a2198c179e98f3a9e0134d75329781b4cab7def44338343604051808473ffffffffffffffffffffffffffffffffffffffff1673ffffffffffffffffffffffffffffffffffffffff1681526020018373ffffffffffffffffffffffffffffffffffffffff1673ffffffffffffffffffffffffffffffffffffffff168152602001828152602001935050505060405180910390a160019050929150505600a165627a7a72305820dcca2ae8ee2a8c6e6f6c9099d2c329d19ede7842ef9fcb56f88918eb043783070029",
  "source": "pragma solidity ^0.4.19;\n \ncontract RockPaperScissors {\n    \n    address public owner;\n    //uint winningPlayer returns 1, winner is player1\n    //uint winningPlayer returns 2, winner is player2\n    \n    enum Bet {ROCK, PAPER, SCISSORS}\n    \n    struct BetBox {\n       address player1;\n       address player2;\n       address winner;\n       Bet betPlayer1;\n       Bet betPlayer2;\n       uint repeatBetPlayer1;\n       uint amountPlayer1;\n       uint amountPlayer2;\n       uint amountWinner;\n       uint deadline; \n    }\n    \n    struct WinnerBox {\n        address winner;\n        uint amountWinner;\n    }\n    \n    // for every uint there is a BetBox and those namespaces (struct) will conform a mapping named betStructs\n    mapping (bytes32 => BetBox) public betStructs; \n    mapping (bytes32 => WinnerBox) public winnerStructs;\n    \n    event LogCreateBet(address caller, uint amount, uint numberOfBlocks);\n    event LogJoinBet(address caller, uint amount, uint blockNumber);\n    event LogPlayBet(address caller, uint betPlayer1, uint blockNumber);\n    event LogAwardWinner (address caller, address winner, uint blockNumber);\n    event LogAwardBet(uint amount, address winner, uint blockNumber);\n    \n    function RockPaperScissors() public {\n        owner = msg.sender;\n    }\n    \n    function getHashToBet(bytes32 passPlayer1, bytes32 passPlayer2) public pure returns(bytes32 hashToBet) {\n        return keccak256(passPlayer1, passPlayer2);\n    }\n    \n    function createBet(bytes32 hashToBet, address player2, uint numberOfBlocks) public payable returns(bool success) {\n        require(betStructs[hashToBet].amountPlayer1 == 0);\n        require(betStructs[hashToBet].player1 != player2); \n        betStructs[hashToBet].player1 = msg.sender;\n        betStructs[hashToBet].player2 = player2;\n        betStructs[hashToBet].deadline = block.number + numberOfBlocks;\n        betStructs[hashToBet].amountPlayer1 = msg.value;\n        LogCreateBet(msg.sender, msg.value, numberOfBlocks);\n        return true;\n    }\n    \n    function joinBet(bytes32 hashToBet) public payable returns(bool success) {\n        require(betStructs[hashToBet].amountPlayer2 == 0);\n        require(betStructs[hashToBet].deadline > block.number);\n        require(betStructs[hashToBet].player2 == msg.sender); \n        require(betStructs[hashToBet].amountPlayer1 == msg.value);\n        betStructs[hashToBet].amountPlayer2 = msg.value;\n        LogJoinBet(msg.sender, msg.value, block.number);\n        return true;\n    }\n    \n    function playBet(Bet betPlayer1, uint repeatBetPlayer1, Bet betPlayer2, bytes32 passPlayer1, bytes32 passPlayer2) public returns(uint winningPlayer) {\n        bytes32 hashToBet = getHashToBet(passPlayer1, passPlayer2);\n        betStructs[hashToBet].repeatBetPlayer1 = repeatBetPlayer1;\n        LogPlayBet(msg.sender, repeatBetPlayer1, block.number);\n        msg.sender.transfer(repeatBetPlayer1);\n        if (betPlayer1 == betPlayer2) revert();\n        if ((betPlayer1 == Bet.PAPER && betPlayer2 == Bet.ROCK)||\n            (betPlayer1 == Bet.ROCK && betPlayer2 == Bet.SCISSORS)||\n            (betPlayer1 == Bet.SCISSORS && betPlayer2 == Bet.PAPER)||\n            (betPlayer1 == Bet.ROCK && betPlayer2 == Bet.SCISSORS)||\n            (betPlayer1 == Bet.PAPER && betPlayer2 == Bet.ROCK)||\n            (betPlayer1 == Bet.SCISSORS && betPlayer2 == Bet.PAPER)) return 1;\n        if ((betPlayer2 == Bet.PAPER && betPlayer1 == Bet.ROCK)||\n            (betPlayer2 == Bet.ROCK && betPlayer1 == Bet.SCISSORS)||\n            (betPlayer2 == Bet.SCISSORS && betPlayer1 == Bet.PAPER)||\n            (betPlayer2 == Bet.ROCK && betPlayer1 == Bet.SCISSORS)||\n            (betPlayer2 == Bet.PAPER && betPlayer1 == Bet.ROCK)||\n            (betPlayer2 == Bet.SCISSORS && betPlayer1 == Bet.PAPER)) return 2;  \n        assert(false);\n    }\n    \n    function getHashToAward(bytes32 passOwner, bytes32 passWinner) public pure returns(bytes32 hashToAward) {\n        return keccak256(passOwner, passWinner);\n    }\n    \n    function awardWinner(bytes32 hashToAward, address winner) public returns(bool success) {\n        require(owner == msg.sender);\n        winnerStructs[hashToAward].winner = winner;\n        LogAwardWinner(msg.sender, winner, block.number);\n        return true;\n    }\n\n    function awardBetToWinner(bytes32 hashToAward, bytes32 hashToBet) public returns(bool success) {\n        require(winnerStructs[hashToAward].winner == msg.sender);\n        betStructs[hashToBet].amountWinner = betStructs[hashToBet].amountPlayer1 + betStructs[hashToBet].amountPlayer2;\n        uint amount = betStructs[hashToBet].amountWinner;\n        betStructs[hashToBet].amountWinner = 0;\n        LogAwardBet(amount, msg.sender, block.number);\n        msg.sender.transfer(amount);\n        return true;    \n    }\n}\n\n\n//pending1: assign Winner to betStructs box and assign amountWinner to winnerStructs box\n//pending2: create a cancelBet() to return money to players if there is a tie. ",
  "sourcePath": "/home/lluisa/DAPPS/B9Lab-Project3/contracts/RockPaperScissors.sol",
  "compiler": {
    "name": "solc",
    "version": "0.4.19+commit.c4cbbb05.Emscripten.clang"
  },
  "schemaVersion": "2.0.0",
  "updatedAt": "2018-12-20T20:15:11.700Z"
}